:020000040800F2
:1000000080CA012095030008174E00080F4E000813
:10001000134E000845200008155500080000000098
:10002000000000000000000000000000D5020008F1
:10003000772200080000000031030008194E000874
:10004000B9030008B9030008B9030008B9030008A0
:10005000B9030008B9030008B9030008B903000890
:10006000B9030008B9030008B9030008B903000880
:10007000B9030008B9030008B9030008B903000870
:10008000B9030008B9030008B9030008B903000860
:10009000B9030008B9030008B9030008B903000850
:1000A000B9030008B9030008B9030008B903000840
:1000B000B9030008B9030008B9030008B903000830
:1000C000B9030008B9030008B9030008B903000820
:1000D000B9030008155200081D53000821540008F8
:1000E000B9030008B9030008B9030008B903000800
:1000F000B9030008B9030008B9030008B9030008F0
:10010000B9030008B9030008B9030008B9030008DF
:10011000B9030008B9030008414E0008B9030008FC
:10012000B90300083D210008B9030008B90300081D
:10013000B9030008B9030008B9030008B9030008AF
:10014000B9030008B9030008B9030008B90300089F
:10015000B9030008B9030008B9030008B90300088F
:10016000B9030008B9030008B9030008B90300087F
:10017000B9030008B90300082D21000800000000A1
:10018000B9030008B903000800F002F800F092F883
:100190000AA090E8000C82448344AAF10107DA45E2
:1001A00001D100F087F8AFF2090EBAE80F0013F0A2
:1001B000010F18BFFB1A43F00103184760DD000070
:1001C00080DD0000103A24BF78C878C1FAD8520701
:1001D00024BF30C830C144BF04680C6070470000C1
:1001E0000023002400250026103A28BF78C1FBD840
:1001F000520728BF30C148BF0B6070476E2900F01E
:10020000B384702900F07F8266290CF06883652929
:100210000CF0658367290CF0628361290CF061831F
:1002200003681B0A28BF41F08001692900F0F081B2
:10023000642900F0ED81752900F0EA816F2900F052
:10024000B285782900F04B82E92900F04D85E42938
:1002500000F04A85F52900F04785EF2900F0AF85C9
:10026000F82900F04A820368DB0928BF41F08001C9
:10027000632900F0BC84732900F0C184E32901F0F4
:10028000B781F32901F0BC81002070471FB50CF045
:1002900021FB01F00BFA0400002000210CF004FB0C
:1002A000401C6060002000210CF0E8FAE0601FBDF7
:1002B00010B510BD01F0CCF91146FFF7E7FF09F0CA
:1002C000A5FB01F0A9FA03B4FFF7F2FF03BC05F0A8
:1002D0005EF900002C4B19680868B0E8F04F80F315
:1002E0000988BFF36F8F4FF0000080F311887047CB
:1002F0000000000008480068006880F308884FF09C
:10030000000080F3148862B661B6BFF34F8FBFF36D
:100310006F8F00DF00BF00BF08ED00E0DFF80C00CA
:10032000016841F470010160704700BF88ED00E092
:10033000EFF30980BFF36F8F134B1A681EF0100F95
:1003400008BF20ED108A20E9F04F106009B44FF08B
:10035000500080F31188BFF34F8FBFF36F8F0BF006
:10036000E9F94FF0000080F3118809BC19680868AA
:10037000B0E8F04F1EF0100F08BFB0EC108A80F309
:100380000988BFF36F8F704744000020EFF30580AA
:10039000704700000C48016841F4700101600B488F
:1003A00080470B480047FEE7FEE7FEE7FEE7FEE773
:1003B000FEE7FEE7FEE7FEE7FEE700000548064928
:1003C000044A064B7047000088ED00E02D4E0008FF
:1003D0008901000880C6012080CA012080C6012052
:1003E000704753EA020C00F069802DE9F04B4FF0A2
:1003F0000006002B1FBFB3FA83F503FA05F424FAB5
:1004000005F65E4012BF1643B2FA82F502FA05F411
:10041000C5F120051EBF22FA05FC44EA0C04203574
:1004200056EA044C4FEA144418BF641C4FF000080D
:100430004FF00009904271EB030C39D3002919BF2A
:10044000B1FA81F701FA07F6B0FA80F700FA07F679
:10045000C7F120071EBF20FA07FC46EA0C0620372A
:10046000B6FBF4FCA7EB0507103F07F01F0BCBF121
:1004700020060CFA0BFB2CFA06F644BFB346002606
:10048000202FA4BF5E464FF0000B5BEA060C08BFAE
:100490004FF0010B19EB0B09ABFB027C48EB060894
:1004A000C01B06FB02CC0BFB03CC71EB0C01C1E7BC
:1004B0000B46024641464846BDE8F08B13B54FF067
:1004C00000004FF00001AFF30080BDE81C40704712
:1004D0001CB50C46064B7B4469460090204600F054
:1004E0005CFB04460020694600F06AFB20461CBD08
:1004F000E70600000FB4044910B503AA029800F003
:1005000083FB10BC5DF814FB340000200FB41CB555
:10051000084B06AA7B4469460090059800F03DFB15
:1005200004460020694600F04BFB20461CBC5DF8E9
:1005300014FB0000A90600000FB47CB50C0009AA4A
:10054000009001D02044401E084B7B446946019036
:10055000089800F022FB05461CB10020694600F017
:100560002FFB28467CBC5DF814FB00007D060000D4
:1005700070B5044685690068C10601D5302600E0E3
:100580002026C00707D070BDD4E90121304690472E
:10059000206A401C20626D1EF6D570BD70B5044601
:1005A00085690078C00707D170BDD4E901212020FA
:1005B0009047206A401C20626D1EF6D570BD70B554
:1005C0000C460546012A05D02878800600D5EA6940
:1005D000002302E0012305E05B1C934202D2E05CB1
:1005E0000028F9D1A869E618C01AA861286A184439
:1005F00028622846FFF7BCFF04E0D5E9012114F882
:10060000010B9047B442F8D32846FFF7C7FF70BDEF
:100610002DE9F0410646002410687529314616A5DB
:1006200010D000F036FA002802DA404213A507E0A5
:1006300031688A0701D512A502E0490704D511A542
:10064000012401E000F02EFA00210A2206F124071D
:1006500009E0B0FBF2FCB0FBF2F302FB1C0030300F
:1006600078541846491C0028F3D123462A463046C0
:10067000BDE8F04100F01FBA000000002D000000AE
:100680002B00000020000000F0B40D460188090591
:1006900002D5214C7C4402E01F4C7C440E340021E6
:1006A00000F1240608E002F00F071209E75D42EAB4
:1006B00003721B097754491C52EA0307F3D10278ED
:1006C0000023120704D5702D06D009B1022311347E
:1006D0002246F0BC00F0EFB901231034F8E770B502
:1006E00004460D462146106800F0DCF90246294612
:1006F0002046BDE870400023C6E7D21D22F0070364
:10070000D3E90023C0E70368126843F020030360C5
:100710000823C3610023B7E730D700002DE9F05F5D
:10072000894604464FF0000ADFF874B1FB44C0F874
:1007300020A02046E1688847002874D0252806D0EC
:10074000D4E901219047206A401C2062F1E700268D
:100750005F462046E16888472028054607DB312DA3
:1007600005D2781910F8200C08B10643F1E7B0075C
:1007700001D526F00406C4F81CA00027C4F818A070
:100780002A2D09D0284604F0FBFE38B304EB870875
:10079000303DC8F8185019E059F8041B204604EB06
:1007A00087029161E1688847012F054618D1E06909
:1007B000002820DA26F020061DE0D8F8180000EB0B
:1007C000800005EB40003038C8F818002046E1688A
:1007D0008847054604F0D4FE0028EED1012F0AD048
:1007E0002E2D08D12046E16888477F1C0546022F40
:1007F00046F02006C4DBA069002803DA404246F038
:100800000106A061F00701D026F010066C2D0BD078
:10081000682D09D04C2D39D06A2D35D0742D35D0A6
:100820007A2D33D016E038E0E1682F46204688471D
:10083000B842054609D16C2F26D04FF48060E1689C
:10084000064320468847054604E06C2F1AD04FF433
:10085000807006430DB3A5F14100192802D8203558
:1008600046F400664A462946204626604E46FFF773
:10087000C5FC80B101280BD0F61D26F0070000F161
:10088000080956E74020E4E78020D8E70020D6E7B3
:1008900006F104094DE7284652E7206ABDE8F09FBB
:1008A000C0D6000030B505460B462A4613F8014B6A
:1008B00012F8010B08B1A042F8D01CB1002802D0F8
:1008C0006D1CF1E7284630BD40EA010310B59B07D7
:1008D0000FD1042A0DD310C808C9121F9C42F8D0AA
:1008E00020BA19BA884201D9012010BD4FF0FF305B
:1008F00010BD1AB1D30703D0521C07E0002010BD71
:1009000010F8013B11F8014B1B1B07D110F8013BFC
:1009100011F8014B1B1B01D1921EF1D1184610BDDD
:1009200010B5431C02E010F8011B71B18107FAD128
:100930004FF0013202C88C1A8C4314EAC211F9D06C
:10094000C01A0A0603D0C01E10BDC01A10BD0A048A
:1009500001D0801E10BD0902FCD0401E10BD032A2C
:1009600040F2308010F0030C00F0158011F8013BCC
:10097000BCF1020F624498BF11F801CB00F8013BB3
:1009800038BF11F8013BA2F1040298BF00F801CB77
:1009900038BF00F8013B11F0030300F01B82083A56
:1009A000C0F0088051F8043B083A51F804CBA0E8A5
:1009B0000810F5E7121D5CBF51F8043B40F8043BFA
:1009C000AFF30080D20724BF11F8013B11F801CB2F
:1009D00048BF11F8012B24BF00F8013B00F801CB00
:1009E00048BF00F8012B704702F0FF0343EA0322DF
:1009F00042EA024200F002B84FF000020429C0F0BF
:100A0000128010F0030C00F01B80CCF1040CBCF140
:100A1000020F18BF00F8012BA8BF20F8022BA1EB92
:100A20000C0100F00DB85FEAC17C24BF00F8012B77
:100A300000F8012B48BF00F8012B70474FF000026F
:100A400000B5134694469646203922BFA0E80C50C4
:100A5000A0E80C50B1F12001BFF4F7AF090728BF9F
:100A6000A0E80C5048BF0CC05DF804EB890028BF1B
:100A700040F8042B08BF704748BF20F8022B11F044
:100A8000804F18BF00F8012B7047704770477047C0
:100A9000704709684A0501D540B27047C905FCD5C1
:100AA00000B2704709684A0501D5C0B27047C90550
:100AB000FCD580B270472DE9F0470D469946924625
:100AC000044600F124080168880604D5E06921F095
:100AD0001001216000E00120A84201DD471B00E079
:100AE0000027A1697A1902EB0900081AA061207891
:100AF000C00602D42046FFF73BFD002608E0D4E9FB
:100B000001211AF806009047206A401C761C2062DA
:100B10004E45F4DB2078C0060AD52046FFF728FDB5
:100B200006E0D4E9012130209047206A401C206271
:100B3000381EA7F10107F4DC07E0D4E9012118F819
:100B400005009047206A401C2062281EA5F101057F
:100B5000F3DC2046FFF722FD2078000602D50220B4
:100B6000BDE8F0870120FBE711680268006A5305C1
:100B700001D508700AE0D30501D5088006E0130608
:100B800003D5C217C1E9000200E0086001207047E8
:100B900001694A1C02610878704700B58FB0CDE941
:100BA00001310021059105497944CDE90310114631
:100BB0006846FFF7B3FD0FB000BD0000E5FFFFFF83
:100BC0000A6802F8010B0A607047D1E900239A42D3
:100BD00002D2531C0B601070704710B5436913B1FB
:100BE000AFF3008001E0FFF7EAFC012010BD1278AE
:100BF00000F124010A7000224A700122EDE7116819
:100C00004FF0FF32E9E70000074B70B50D467B441B
:100C1000FFF7C3FF0446284600F0F6FC10B14FF082
:100C2000FF3070BD204670BD4B8C00002DE9FF5F8A
:100C300015468A460446DFF8AC80F8440027D8E918
:100C400000103E46CDE9001010E03AF816106A4652
:100C500002A800F0DDFC411C07D02178890603D5ED
:100C6000E269391891420DD80744761C2078800635
:100C700002D5E069B84205DDAE42E6DB3AF816007F
:100C80000028E2D1A069C01BA0612046FFF770FCDC
:100C9000D8E90010CDE90010002017E03AF818104C
:100CA0006A4602A800F0B4FCB0F1FF3F81460BD0C9
:100CB00000250DF1080B05E0D4E901211BF8050022
:100CC00090476D1C4D45F7D308F10100B0428046B6
:100CD000E4DB206A384420622046FFF75FFCBDE871
:100CE000FF9F0000C6D100002DE9F0418046D21DD3
:100CF00022F007020025D2E90002F52915A614D03A
:100D0000011E72F1000106DA0023D0EB030063EB51
:100D1000020211A608E0D8F800108B0701D50FA633
:100D200002E0490701D50EA601251146002408F16D
:100D3000240704E000F080F830323A55641C50EA91
:100D40000102F7D12B46324621464046BDE8F0412C
:100D5000FFF7B1BE000000002D0000002B000000D6
:100D60002000000030B4002100F1240408E002F06B
:100D70000705D208303542EA4372DB086554491C46
:100D800052EA0305F3D10468002310A2250707D512
:100D9000A40600D421B1C46901230DA2641EC4615C
:100DA00030BCFFF788BE10B5044621461068FFF737
:100DB00079FE02462046BDE810400023D2E7D21D4E
:100DC00022F00701D1E90023CCE700000000000079
:100DD0003000000010B5203AC0F00B80B1E8185088
:100DE000203AA0E81850B1E81850A0E81850BFF415
:100DF000F5AF5FEA027C24BFB1E81850A0E81850B4
:100E000044BF18C918C0BDE810405FEA827C24BF07
:100E100051F8043B40F8043B08BF7047D20728BF95
:100E200031F8023B48BF11F8012B28BF20F8023BE4
:100E300048BF00F8012B704730B5B0F10A024FEA05
:100E4000900E71F100034EEA817EB0EB0E0061EB73
:100E500091014FEA101E4EEA017E10EB0E0041EBAD
:100E600011114FEA102E4EEA016E10EB0E0041EB0D
:100E700011214FEA104E4EEA014E10EB0E0041EBED
:100E80001141401841F100014FEAD00040EA4170A1
:100E90004FEAD10110EB80054FEA810444EA9074D7
:100EA00044EB01046D1944EB0404521BA3414FF0C1
:100EB000000348BF0A3200D530BD401C41F100019B
:100EC00030BD70472DE9FF4F0C461E464FF0FF37EF
:100ED0008BB0D2E90001DDF860800A908A46C1F348
:100EE0000A5505B93D46002108464FF00000BAF109
:100EF000000F00F4400005DA00EB80004FF44001E1
:100F000001EA50004FEA9059B9F1010F00DDB946EE
:100F10000A9850EA4A000ED044F61050A5F2FF3568
:100F200045432F14B8F1000F1ED07542291E1EDD57
:100F3000C9F100021CE0B8F1010F4FF0000001D030
:100F4000302103E0F24305E02154401CB042FBDBBA
:100F500030460022002121540B99C1F80880C1E9D4
:100F600000200FB0BDE8F08FBD1B6D1CDEE74A46C8
:100F700000DA694206A800F0DDFB06AB93E8070043
:100F800003AB83E8070050460A9900F093FC8DE814
:100F90000700A0F500501F3800900398002D0ADDCF
:100FA00042F21F014A460844002303A90390684601
:100FB00000F0FCFE09E0A0F500504A461F3800236F
:100FC00003A90390684600F006FF8DE807000004BF
:100FD000000C03D04FF0FF30410800E01046B8F19C
:100FE000000F03D00022009215461EE0751E05D4A6
:100FF000FFF722FF303262556D1EF9D5B34601224C
:10100000084302D000227F1C04E02078302801D160
:1010100000227F1E002A099784D01DE0112D07DAD7
:10102000FFF70AFF303262556D1C50EA0102F5D11C
:10103000084302D00098C8B10EE00021681E05E008
:10104000235C625C63542254401E491C8142F7DBDE
:10105000AB46A81B401E0990002004F80B000B981B
:10106000099AC0F80880C0E9002B7AE711264FF0F2
:10107000000857E72DE9F04F88460446D21D22F0BC
:10108000070191B0D1E90001CDE90A0104F044FA69
:1010900002460B98C00F01D02D2007E02068810781
:1010A00001D52B2002E0202101EAC000032A09908B
:1010B00001D0072A05DB03464146204600F0FAFA34
:1010C0000BE12078800601D5E06900E00620B8F148
:1010D000650F814606D0B8F1660F18D0B8F1670FDA
:1010E00070D131E00020B9F1110F009001DB112324
:1010F00001E009F101030AAA01A90CA8FFF7E2FE29
:10110000DDE90C70002609F10105834647E0012066
:101110004B4600904FF000470AAA01A90CA8FFF720
:10112000D1FEDDE90DB00C995D46002610B909F13C
:1011300001000D18B9EB050003D4C0F1FF3609F129
:101140000105A5EB09002BE0B9F1010F01DA4FF021
:1011500001090020B9F1110F0090484601DD11236B
:1011600000E003460AAA01A90CA8FFF7ABFEDDE9DF
:101170000C704D4600268346207800070AD4AB4504
:1011800000DA5D4601A8012D04DD411911F8011CAA
:10119000302907D04F4502DA17F1040F04DA012095
:1011A00082460FE06D1EEEE7002F02DCED1B3E4491
:1011B00003E0781CA84200DD7D1CB81B00F1010A89
:1011C0004FF000472078000703D4AA4501DB4FF019
:1011D000FF3A0021B7F1004F0DF143088DF843109D
:1011E00024D002202B23002F01DA7F422D230A2155
:1011F000021EA0F1010000DC5FB197FBF1FC97FB40
:10120000F1F201FB1C7C17460CF1300C08F801CD03
:10121000EEE7A8F1010003702188090501D54521F9
:1012200000E06521A0F1010800F8011C09980FA950
:10123000A1EB0807FF1D00B10120411901EBEA7085
:10124000A1693844081A401EA0612078C00602D463
:101250002046FFF78DF9099828B1D4E9012190477C
:10126000206A401C20622078C00622D52046FFF765
:101270007FF91EE0002E04DBB34502DD01A8805D8E
:1012800000E03020D4E901219047206A401C206210
:10129000761CAAF101005FEA000A0AD100F006FA02
:1012A000C0680168405CD4E901219047206A401C75
:1012B0002062281EA5F10105DCDC07E0D4E901214C
:1012C00018F8010B9047206A401C2062381EA7F1D5
:1012D0000107F3DC2046FFF761F9032011B041E676
:1012E0002DE9F04F04460D46D21D22F0070089B0CB
:1012F000D0E900974846394604F00EF90246F80F47
:1013000001D02D2307E02068810701D52B2302E0BF
:10131000202101EAC0038DF820300BB1012000E04C
:101320000020032A824601D0072A04DB29462046F2
:1013300000F0C0F93FE12078800601D40D2500E0DF
:10134000E569C7F30A560D2D49DA00214FEA175B0C
:1013500008464FF00000002F00F4400007DA00EBD1
:1013600080004FF4400100EBD07001EA600081156D
:10137000012901DD4FF0FF3100224FEA850CBCF15D
:10138000180F06D31346ACF118004FF08052C2403C
:1013900003E04FF4801323FA0CF30CF10C0CBCF1B6
:1013A000200F04D3ACF1200C09FA0CF001E007FA8D
:1013B0000CF000294FF0004801DD18B90FE00ED104
:1013C00040450CD319EB02095F4121B9404502D1D8
:1013D0009F4329EA0209BBEB175F00D0761C2088E7
:1013E000000502D57B48784402E07A4878441938F1
:1013F00008AA302302F80A30037C0AF10101002E0A
:101400000AF1020A53546A4602DC4FF0300101E04F
:101410004FF031014FF001088DF8001002D0A6F214
:10142000FF3603E059EA470100D06B4E002D02DC85
:101430002178090704D54FF002082E218DF80110FC
:10144000C44600210BE0C7F303433F01C35C491CC2
:101450006D1E02F80830052908F1010801DA002D97
:10146000F1DC00210CE000EB1973491C1B786D1EA8
:10147000082902F808304FEA091908F1010801DAD1
:10148000002DF0DC21688B0602D516E0A8F10108DA
:10149000E04505DD02EB080313F8013C302BF5D0E5
:1014A000B8F1000F09DD02EB080313F8013C2E2B05
:1014B00003D1090701D4A8F10108002D05DD3E2163
:1014C00002F808106D1E08F10108407C002E02F899
:1014D000080008F1010804DA2D20764202F808001D
:1014E00002E02B2002F808000A214FF47A708642AD
:1014F00008F101080BDB96FBF0F3303302F80830FB
:1015000096FBF0F308F1010800FB136601E0642E7E
:101510000CDB642096FBF0F3303302F8083096FBC6
:10152000F0F308F1010800FB136601E00A2E06DB68
:1015300096FBF1F0303002F8080008F1010896FB44
:10154000F1F001FB1060303002F80800A16908F1E9
:10155000010808EB050202EB0A00081AA0612078D6
:10156000C00602D42046FFF703F8216A08AE01EB5B
:101570000A00206204E0D4E9012116F8010B90472B
:10158000BAF1010AF7D22078C00602D52046FEF74C
:10159000EFFF6E4609E016F8010B3E280FD0D4E9A4
:1015A00001219047206A401C2062B8F10108F2D264
:1015B0002046FEF7F3FF09B00320BDE8F08F206A54
:1015C0002844206203E0D4E90121302090476D1EB9
:1015D000EBD3F8E735CA000002FCFFFF10B5436902
:1015E00013B1AFF3008001E0FFF720FB012010BD35
:1015F000128800F1240182840022C2840122EDE7D6
:1016000011684FF0FF32E9E7007B00F0800070477F
:1016100070B516460C46054600F040F8036893F88E
:101620000101012806D0FF2C0FD8185D68B10120F8
:101630002C7070BDD3F807013246214603F2071320
:1016400003442846BDE8704018474FF0FF3070BD96
:10165000754600F0EBF8AE4605006946534620F0AB
:101660000700854618B020B5FEF7A8FEBDE820406B
:101670004FF000064FF000074FF000084FF0000B4E
:1016800021F00701AC46ACE8C009ACE8C009ACE801
:10169000C009ACE8C0098D467047000010B500F0E5
:1016A00005F8001D10BD00BF01B2000000487047E2
:1016B0003CC601202DE9F0411F460446032601687F
:1016C000072A01F4006004DB08B116A505E016A5A1
:1016D00003E008B115A500E015A521F01000206079
:1016E000A069C01EA0610FB1401EA0612046FEF798
:1016F0003FFF4FB1D4E9012138469047206A401C92
:101700002062C01C206206E0206AFAE7D4E90121C9
:1017100015F8010B9047761EF8D22046FEF73EFFE3
:10172000BDE8F0814E414E006E616E00494E4600AC
:10173000696E66002DE9F047814616468AB0354845
:1017400078440DC88DE80D0032487844801C03AC05
:101750000DC884E80D0041F69B300844372190FB0A
:10176000F1F290FBF1F5A5F1800501FB12041B3CA1
:1017700002D56442012000E00020DFF898A08046F6
:101780000027FA44AAF1BE0A0EE0E0070AD032466A
:10179000684607EB470101230AEB810100F01BFBC0
:1017A0008DE8070064107F1C002CEED1194F7F4498
:1017B000AE3F19E0E80715D007EB04100DF1180A49
:1017C00090E80E008AE80E00C068F04201D1981936
:1017D00008903246012306A903A800F0FCFA03ABE7
:1017E00083E807006D10641C002DE3D14FF0010366
:1017F00032466946B8F1000F03A802D000F0D6FACD
:1018000001E000F0E8FAC9E90001C9F808200AB0CF
:10181000BDE8F0876CC7000010B50446AFF3008048
:101820002046BDE81040FEF74EBD0000004870475E
:101830001CC601204FF0013C50F8042B51F8043B2A
:101840009A4221D1A2EB0C03934313EACC1317D194
:1018500050F8042B51F8043B9A4215D1A2EB0C032B
:10186000934313EACC130BD150F8042B51F8043BEB
:101870009A4209D1A2EB0C03934313EACC13DBD0B9
:101880004FF00000704700BFD01A01BAB1FA81F1E1
:1018900001F0180122FA01F0CB40C1F12001DBB2C6
:1018A000C0B2C01A2CFA01F3D11A914311EAC31144
:1018B000E6D170475FEA400C08BF91F0000F4FEA95
:1018C0008C234FEAC12243EA51514FEA1C5018BF02
:1018D00000F5F0404FEA300018BF41F000415FEAE8
:1018E0006C5C00F02980BCF1FF3F08BF40F08040F5
:1018F0007047130C06BF12044FF0100C4FF0000C91
:10190000130E04BF12020CF1080C130F04BF1201D6
:101910000CF1040C930F04BF92000CF1020CD30FD6
:1019200004BF52000CF1010C11464FF00002A0F16F
:101930001F00A0EB0C00704711F0004F08BF70476C
:1019400031F000413FF4D5AF0B0C06BF09044FF056
:10195000100C4FF0000C0B0E04BF09020CF1080C28
:101960000B0F04BF09010CF1040C8B0F04BF89009D
:101970000CF1020CCB0F04BF49000CF1010CCCF1AF
:101980002003A0EB0C0022FA03F302FA0CF241EA66
:10199000030100F10100704720F07F4C80EA030052
:1019A00023F07F47ACEB070303F57C5300F00040C6
:1019B00003F1FF032DE980494FEA154B09B44FEAC3
:1019C000144325EA0B4E24EA03480FF2042606EBE3
:1019D000132749083E785FEA320203FB0667C7F522
:1019E000000707FB06F64FEA54374FEAD64606F1E2
:1019F000020607FB066CCCF1005C4FEA1C472CEAA0
:101A0000074C07FB06F40CFB06F504EB15464FEA02
:101A1000961634BF00204FF000404FEAD13706FB46
:101A200007FC4FEA1C4C0CFB0BF7D21B03FB0CF71B
:101A300061EB07010CFB0EF7B0EB074072EB1742AE
:101A40000CFB08F734BFA2EB0742B2EB074261EB95
:101A500017414FEA0C444FEA910706FB07FC4FEA97
:101A60001C4C0CFB0BF7B0EBC74072EB573203FB7F
:101A70000CF734BFA2EBC742B2EBC74261EB573160
:101A80000CFB0EF7B0EBC70072EB57720CFB08F7BC
:101A900034BFA2EBC702B2EBC70261EB5771039FE1
:101AA0004FEA816141EA921104EBCC044FEAD1374D
:101AB0004FEA826206FB07FC42EA90124FEA80601E
:101AC0004FEA1C4C0CFB0BF7D21B03FB0CF761EB32
:101AD00007010CFB0EF7B0EB074072EB17420CFB53
:101AE00008F734BFA2EB0742B2EB074261EB1741A4
:101AF0004FEA8C554FEA910704EB9C2406FB07FC48
:101B00004FEA1C4C0CFB0BF7B0EBC74072EB5732A3
:101B100003FB0CF734BFA2EBC742B2EBC74261EB49
:101B200057310CFB0EF7B0EBC70072EB57720CFB92
:101B300008F734BFA2EBC702B2EBC70261EB5771E3
:101B400015EB4C254FEA816141EA92114FEA82621E
:101B50004FEAD13742EA901206FB07FC44F1000439
:101B60004FEA80604FEA1C4C0CFB0BF7D21B03FBC7
:101B70000CF761EB07010CFB0EF7B0EB074072EBC3
:101B800017420CFB08F734BFA2EB0742B2EB074247
:101B900061EB174115EB1C154FEA813141EA924187
:101BA0004FEA823242EA90424FEA80304FEA0C76A6
:101BB00044F1000448EA03434EEA0B484FF0000E9C
:101BC000B2EB080C71EB030724BF624639464EEBBB
:101BD0000E0E4FF0000B0018524149414BEB0B0B1E
:101BE000B2EB080C71EB03077BF1000B24BF6246DC
:101BF00039464EEB0E0E4FF0000B00185241494192
:101C00004BEB0B0BB2EB080C71EB03077BF1000BFA
:101C100024BF624639464EEB0E0E51EA020718BF4A
:101C200046F0010616EB0E7655F1000254F1000164
:101C300003D5BDE88901BDE80088BDE88901BDE89C
:101C40000048B619524141EB0101A3F1010370476D
:101C500080807F7E7D7C7B7A7978777676757473E9
:101C6000727171706F6E6E6D6C6C6B6A6A696868A8
:101C7000676666656464636362616160605F5F5E3E
:101C80005E5D5D5C5C5B5B5A5A59595858575756B4
:101C90005655555554545353525252515150505019
:101CA0004F4F4F4E4E4D4D4D4C4C4C4B4B4B4A4A6B
:101CB0004A494949484848474747474646464545AF
:101CC00045444444444343434342424242414141E8
:101CD000002B9C4630D477002BD01CB54FEA370739
:101CE00003B44FF010004FF01001BAF1000F06D00E
:101CF000BCF1000FDCBF40F0080040F008014FF0DD
:101D000000000FBCBDE810400BF1010BBBF1010F4F
:101D100008BF5FEA170722BF12F1010211F10101AA
:101D20004FF0004143F1000300F0004043EA00009F
:101D30007047F9D35708D0E746EA064613F1400F3B
:101D40004FEA16461FDD13F1200FDFBF16430A4688
:101D5000002120335B42BED0C3F1200746EA06468D
:101D600002FA07F74FEA164646EA0706C3F12007CC
:101D700022FA03F201FA07F721FA03F14FF0000308
:101D800042EA0702A7E746EA020646EA06464FEAA3
:101D9000164646EA0106BCBF46EA0646360C4FF038
:101DA00000034FF000024FF0000194E72DE9804C52
:101DB0009A46934670B491E8380007C831EA400C5F
:101DC00048BF34EA430C03D5FFF7E6FDFFF780FF79
:101DD000F0BCBDE8008C2DE9804C9A46934670B467
:101DE00091E8380007C810F0804F08BF13F0804F0B
:101DF00003D100F005F8FFF76BFFF0BCBDE8008CE5
:101E000020F07F4780EA030023F07F4C07EB0C03B0
:101E1000A3F57C5300F00040A3F1FE0392F0000F05
:101E200000F0B38095F0000F00F077802DE90149B4
:101E30004FEA11404FEA144621EA004800FB06FC35
:101E400024EA064708FB06F607FB08F800FB07F73D
:101E500018EB06484CEB164C4FEA124B18EB0748B0
:101E60004FEA15464CEB174022EA0B4E0BFB06FCE3
:101E700025EA06470EFB06F607FB0EFE0BFB07F7EF
:101E80001EEB064E4CEB164C4FF000061EEB074EB9
:101E90004CEB174B18EB0B0840F1000018EB0E0B46
:101EA00058EB000840F100008F1A4FF000013CBFD2
:101EB000C943661B14BFB5EB040C00213CBFC943EA
:101EC000F61B4FEA17444EEA8E0E27EA04454FEA06
:101ED0001C4704FB07622CEA074C05FB07F70CFBC9
:101EE00005F604FB0CFC16EB074642EB174216EB1B
:101EF0000C4642EB1C421BEB060658EB020241412A
:101F000046EA9E0601D5BDE80189B619524141EB6A
:101F10000101A3F10103BDE801894FEA14454FEA2D
:101F2000114724EA054621EA074C05FB07F406FBA6
:101F300007F70CFB06F105FB0CFC11EB074144EB2A
:101F400017444FEA124711EB0C4144EB1C4422EAC0
:101F5000074C05FB07F206FB07F70CFB06F605FB33
:101F60000CFC16EB074642EB174216EB0C4642EB15
:101F70001C456A1854F1000148BF7047B619524118
:101F800041EB0101A3F10103704795F0000F37D039
:101F90004FEA11424FEA144721EA024624EA074C6D
:101FA00002FB07F106FB07F70CFB06F402FB0CFC37
:101FB00014EB074441EB17414FEA154714EB0C446F
:101FC00041EB1C4125EA074C02FB07F506FB07F72E
:101FD0000CFB06F602FB0CFC16EB074645EB17451F
:101FE00016EB0C4645EB1C42121951F1000148BF9B
:101FF0007047B619524141EB0101A3F1010370474B
:102000004FEA14454FEA114724EA054621EA074CF6
:1020100005FB07F106FB07F70CFB06F24FF0000685
:1020200005FB0CFC12EB074241EB174112EB0C4293
:1020300051EB1C4148BF7047921841EB0101A3F1DD
:102040000103704700BFFEE770B50546AC6BA06B9F
:10205000406D022802D0012084F82500204600F0BF
:102060000BF970BD70B506460025B46BA06A68B365
:10207000A06B0068006800F40025A06A00F0010071
:1020800078B975B1A06B0068C568E26A082303FBE4
:1020900002510022A06B00F026FCA06A401EA06244
:1020A0002FE0A06B0068006800F4002048BBA06B24
:1020B00000680569E26A082303FB02510122A06B54
:1020C00000F011FCA06A401EA0621AE0A06B00683C
:1020D000006800F4002020B1D4E90D010968C8604F
:1020E0000FE0A06B0068006800F4002048B9656B41
:1020F000E06A042101FB0050A16B09680861206BB4
:10210000A062A06A216B88420ED12068C06840F0AE
:1021100001002168C8602068006800F00200022801
:1021200002D1012084F8250070BD000010B50248DE
:1021300000F0AEF810BD0000CC8C002010B50249B4
:10214000886B01F02FFC10BDCC8C00200146087874
:1021500010381823B0FBF3F20848805CC865032AE6
:1021600005D908686FF30900001D886503E0086859
:102170006FF309008865886D70470000FEC800088D
:10218000014600208A6A8B69CBB932B1012A0DD091
:10219000022A03D0032A10D10EE000BFCB6A03F05D
:1021A0008073B3F1807F00D1012007E0CB6AB3F1E7
:1021B000C07F00D1012001E000E000BF34E08B6966
:1021C000B3F5005F1AD132B1012A07D0022A03D039
:1021D000032A11D10AE000BF01200EE0CB6A03F010
:1021E0008073B3F1807F00D1012006E0CB6AB3F1A8
:1021F000C07F00D1012000E000BF15E032B1012A0C
:1022000005D0022A04D0032A0CD103E000BF00BF8E
:10221000012008E0CB6A03F08073B3F1807F00D126
:10222000012000E000BF00BF704710B50468636084
:102230008468402C04D10468A2600468E16003E073
:102240000468A1600468E26010BD30B504682468C9
:1022500024F4802405682C60046863608468402C42
:1022600004D10468A2600468E16003E00468A1602E
:102270000468E26030BD704770470000034988423F
:1022800003D10121014A82F840107047CC8C002014
:1022900070B504462068056905F0040004280ED1D5
:1022A00021684861E06B40F00200E063042084F89C
:1022B00025002248A16B0865A06B01F05EFB05F0CC
:1022C000020002280ED121684861E06B40F0010055
:1022D000E063042084F825001848A16B0865A06B12
:1022E00001F04BFB05F01000102804D12168486173
:1022F000204600F06EF805F00800082804D1216897
:102300004861204600F0EEFA05F00100A0B1206817
:10231000006800F00200022805D12068C06820F0A3
:102320001E002168C8602068C06820F00100216894
:10233000C8602046FFF7A2FF70BD000049200008DA
:1023400010B504460CB9012010BD94F8250040B921
:10235000002084F82400204600F03CF8204600F0DD
:1023600039F8022084F825002068006840F6F871EA
:10237000884321680860616960680843E168084330
:1023800021690843A1680843A1690843216A0843F9
:1023900021680968084321680860606810280BD12B
:1023A000217F607F41EA0021A07F41EA0041E07F78
:1023B00041EA0060216888612068C06840F01E0022
:1023C0002168C8600020E063012084F82500002017
:1023D000BAE7704710B586B00446142101A8FEF78D
:1023E0002DFBDA4884427DD100BF00BF0020009061
:1023F000D748006840F00100D549086008460068E9
:1024000000F00100009000BF00BF00BF00BF00BF90
:1024100000200090081F006840F48000091F086039
:102420000846006800F48000009000BF00BF00BFB5
:1024300000BF00BF002000900846006840F0020086
:1024400008600846006800F00200009000BF00BF6E
:1024500000BF00BF00BF002000900846006840F0A9
:10246000010008600846006800F00100009000BF0D
:1024700000BF00BF00BF00BF0020009008460068FA
:1024800040F0010008600846006800F0010000907C
:1024900000BF00BF00BF00BF00BF00200090084683
:1024A000006840F0040008600846006800F004007E
:1024B000009000BF00BF00BF00BF00BF0020009021
:1024C0000846006840F0040008600846006800F014
:1024D0000400009000BF00BF00BF00BF00BF00208D
:1024E000009000E02FE10846006840F0040008601A
:1024F0000846006800F00400009000BF00BF00BF65
:1025000000BF00BF002000900846006840F00400B3
:1025100008600846006800F00400009000BF00BF9B
:1025200000BF00BF00BF002000900846006840F0D8
:10253000040008600846006800F00400009000BF36
:1025400000BF00BF00BF00BF002000900846006829
:1025500040F0020008600846006800F002000090A9
:1025600000BF00BF00BF00BF00BF002000900846B2
:10257000006840F0100008600846006800F0100095
:10258000009000BF00BF00BF00BF00BF0020009050
:102590000846006840F0100008600846006800F037
:1025A0001000009000BF00BF00BF802001900220FB
:1025B000029001200390022004900D20059001A9B3
:1025C000644801F0CFFB102001900220029001200E
:1025D0000390022004900D20059001A95E4801F0AF
:1025E000C1FB4020019002200290012003900220B4
:1025F00004900D20059001A9574801F0B3FB40203D
:1026000001900220029001200390022004900D20EE
:10261000059001A9514801F0A5FB802001900220FE
:10262000029001200390022004900D20059001A942
:102630004A4801F097FB4FF480700190022002900D
:1026400001200390022004900D20059001A9434829
:1026500001F088FB4FF400700190022002900120ED
:102660000390022004900D20059001A93B4801F041
:1026700079FB4FF40060019002200290012003904A
:10268000022004900D20059001A9344801F06AFB56
:10269000402001900220029001200390022004902B
:1026A0000D20059001A92B4801F05CFB2020019032
:1026B0000220029001200390022004900D2005903A
:1026C00001A9274801F04EFB402001900220029012
:1026D00001200390022004900D20059001A92048BC
:1026E00001F040FB1F48204908604FF0007048602F
:1026F00000211D488160C16001614FF4805141613A
:10270000490081614911C1614902016204214162AC
:10271000012181620021C162016300BFA063846363
:1027200000BF01F05FFA022211464E2001F09BFC2F
:102730004E2001F088FC03220221392001F093FC95
:10274000392001F080FC06B010BD0000CC8C0020C8
:1027500034380240000402400000024000080240F9
:102760000010024028640240108D00202DE9F8433B
:1027700004460F4615461E464FF0000800BF94F869
:102780002400012802D10220BDE8F883012084F84A
:10279000240000BF022084F825002068006840F46F
:1027A0008040216808602068006820F002002168ED
:1027B0000860206800683843216808602448A16BDD
:1027C000C8632448A16BC8640020A16B0865A0629F
:1027D0002063B6F5803F08D2226802F12801334613
:1027E0002A46A06B01F074FA24E01948A16B4864F2
:1027F0000120A062E662656305E0E06A4008E062ED
:10280000A06A4000A062E06AB0F5803FF5D2A06AFD
:10281000801EA062A06A2063E06A042101FB0058C8
:10282000E06A0090226802F1280143462A46A06B24
:1028300000F062F82068006840F00100216808603C
:1028400000BF002084F8240000BF00BF9CE7000008
:10285000652000084920000838B504462048006873
:102860000E21B0FBF1F00090002500BF94F8240089
:10287000012801D1022038BD012084F8240000BFC6
:10288000022084F825002068006820F001002168FB
:10289000086000BF0098411E009128B9E06B40F02D
:1028A0002000E063032505E02068006800F00100D7
:1028B0000028EFD100BF2068006820F48040216824
:1028C0000860A06B01F004F8E06BE063012084F87D
:1028D000250000BF002084F8240000BF2846CAE776
:1028E000000000207047034612B91868C16001E07B
:1028F00018680161002070472DE9F04704460E4634
:1029000017461D46DDF820804FF00009A06880289A
:1029100004D1400060650120BDE8F087E06B18B18C
:10292000606C08B1E06C18B9402060650120F3E7E5
:1029300000BF94F83400012801D10220ECE7012007
:1029400084F8340000BF94F83500012873D10220C8
:1029500084F83500002060652068006840F480201D
:10296000216808602068056143463A4631462046A2
:10297000FFF75BFCFA49206888425DD9F949206875
:10298000884201D1202052E0F54948392068884228
:1029900001D120204BE0F34960312068884201D109
:1029A000202044E0EE4918312068884201D12020DF
:1029B0003DE0EC4918312068884201D1C01436E06E
:1029C000E74930392068884201D1C0142FE0E54939
:1029D00078312068884201D1C01428E0E0493031C4
:1029E0002068884201D1C01421E0DE4930312068DE
:1029F000884202D14FF4001019E0D94918392068F3
:102A0000884202D14FF4001011E0D649903120687D
:102A1000884202D14FF4001009E0D14948312068C2
:102A2000884202D14FF4001001E04FF00060CC4921
:102A30004C39086020E1EFE3CA49A8312068884298
:102A40005CD9C8492068884201D1202052E0C4499D
:102A500048392068884201D120204BE0C1496031CB
:102A60002068884201D1202044E0BD491831206807
:102A7000884201D120203DE0BA49183120688842BF
:102A800001D1C01436E0B64930392068884201D1FE
:102A9000C0142FE0B34978312068884201D1C014B6
:102AA00028E0AF4930312068884201D1C01421E0CC
:102AB000AC4930312068884202D14FF4001019E04F
:102AC000A74918392068884202D14FF4001011E05C
:102AD000A44990312068884202D14FF4001009E0E7
:102AE0009F4948312068884202D14FF4001001E02C
:102AF0004FF000609A4950390860BDE0994948316B
:102B0000206888425CD997492068884201D12020FA
:102B100052E0934948392068884201D120204BE097
:102B2000904960312068884201D1202044E08C49DE
:102B300018312068884201D120203DE089491831B0
:102B40002068884201D1C01436E0854930392068B8
:102B5000884201D1C0142FE0824978312068884230
:102B600001D1C01428E07E4930312068884201D16B
:102B7000C01421E07B4930312068884202D14FF4F3
:102B8000001019E0764918392068884202D14FF4C4
:102B9000001011E0734990312068884202D14FF44F
:102BA000001009E06E4948312068884202D14FF494
:102BB000001001E04FF000606A491039C8605BE026
:102BC00068492068884201D1202052E06449483990
:102BD0002068884201D120204BE0624960312068A2
:102BE000884201D1202044E05D49183120688842A4
:102BF00001D120203DE05B4918312068884201D195
:102C0000C01436E0564930392068884201D1C014DA
:102C10002FE0544978312068884201D1C01428E05F
:102C20004F4930312068884201D1C01421E04D491C
:102C300030312068884202D14FF4001019E0484931
:102C400018392068884202D14FF4001011E045493C
:102C500090312068884202D14FF4001009E04049C9
:102C600048312068884202D14FF4001001E04FF053
:102C700000603C49103988603949206888425CD935
:102C800038492068884201D1102052E0344948393F
:102C90002068884201D110204BE032496031206821
:102CA000884201D1102044E02D4918312068884223
:102CB00001D110203DE02B4918312068884201D114
:102CC000001536E0264930392068884201D10015C8
:102CD0002FE0244978312068884201D1001528E08E
:102CE0001F4930312068884201D1001521E01D497B
:102CF00030312068884202D14FF4801019E0184921
:102D000018392068884202D14FF4801011E015492B
:102D100090312068884202D14FF4801009E01049B8
:102D200048312068884202D14FF4801001E04FF012
:102D300080600B494C39086020E10A49A8312068BD
:102D400088425FD907492068884201D1102055E0A8
:102D5000034948392068884206D110204EE000001F
:102D60005864024010600240F8492068884201D14E
:102D7000102043E0F6492068884201D110203DE050
:102D8000F24948392068884201D1001536E0F049FF
:102D900048392068884201D100152FE0EB491831ED
:102DA0002068884201D1001528E0E94918312068DF
:102DB000884201D1001521E0E44930392068884279
:102DC00002D14FF4801019E0E1493039206888427F
:102DD00002D14FF4801011E0DC4930312068884284
:102DE00002D14FF4801009E0D9493031206888427F
:102DF00002D14FF4801001E04FF08060D44968396F
:102E00000860BBE0D1491839206888425BD9CF49B6
:102E100060392068884201D1102050E0CC496039E7
:102E20002068884201D1102049E0C84920688842C2
:102E300001D1102043E0C6492068884201D110200A
:102E40003DE0C24948392068884201D1001536E08A
:102E5000BF4948392068884201D100152FE0BB499D
:102E600018312068884201D1001528E0B84918318E
:102E70002068884201D1001521E0B449303920682A
:102E8000884202D14FF4801019E0B14930392068EE
:102E9000884202D14FF4801011E0AC4930312068F3
:102EA000884202D14FF4801009E0A94930312068EE
:102EB000884202D14FF4801001E04FF08060A349B6
:102EC0007039C8605AE0A14960392068884201D150
:102ED000102050E09E4960392068884201D11020BE
:102EE00049E09A492068884201D1102043E098497E
:102EF0002068884201D110203DE09449483920687B
:102F0000884201D1001536E091494839206888424D
:102F100001D100152FE08D4918312068884201D178
:102F2000001528E08A4918312068884201D100152F
:102F300021E0864930392068884202D14FF4801060
:102F400019E0834930392068884202D14FF480105B
:102F500011E07E4930312068884202D14FF4801060
:102F600009E07B4930312068884202D14FF480105B
:102F700001E04FF0806075497039886074491839F4
:102F8000206888425BD9714960392068884201D144
:102F9000082050E06E4960392068884201D108203D
:102FA00049E06A492068884201D1082043E0684925
:102FB0002068884201D108203DE0644948392068F2
:102FC000884201D1401536E061494839206888427D
:102FD00001D140152FE05D4918312068884201D1A8
:102FE000401528E05A4918312068884201D140151F
:102FF00021E0564930392068884202D14FF4002040
:1030000019E0534930392068884202D14FF400203A
:1030100011E04E4930312068884202D14FF400203F
:1030200009E04B4930312068884202D14FF400203A
:1030300001E04FF000704649643908601FE14349E0
:103040004831206888425BD940496039206888420D
:1030500001D1082050E03E4960392068884201D102
:10306000082049E039492068884201D1082043E01E
:1030700037492068884201D108203DE0334948396A
:103080002068884201D1401536E03149483920682E
:10309000884201D140152FE02C4918312068884220
:1030A00001D1401528E02A4918312068884201D111
:1030B000401521E0254930392068884202D14FF47B
:1030C000002019E0224930392068884202D14FF4AB
:1030D000002011E01D4930312068884202D14FF4B0
:1030E000002009E01A4930312068884202D14FF4AB
:1030F000002001E04FF00070154968390860BEE01B
:1031000012491839206888425DD910496039206811
:10311000884201D1082052E00D4960392068884278
:1031200001D108204BE009492068884201D10820DC
:1031300045E007492068884201D108203FE0034963
:1031400048392068884205D1401538E07060024057
:1031500070640240FA492068884201D140152EE08F
:10316000F8492068884201D1401528E0F4496031CF
:103170002068884201D1401521E0F2494839206891
:10318000884202D14FF4002019E0ED49183120683F
:10319000884202D14FF4002011E0EA49183120683A
:1031A000884202D14FF4002009E0E54978312068D7
:1031B000884202D14FF4002001E04FF00070E14955
:1031C0008839C8605BE0DF4978392068884201D1DE
:1031D000082051E0DA4918392068884201D10820D6
:1031E0004AE0D84918392068884201D1082043E0D4
:1031F000D34948312068884201D108203CE0D149B8
:1032000060392068884201D1401535E0CC492068FA
:10321000884202D140152FE04CE3CA492068884219
:1032200001D1401528E0C64960312068884201D1AB
:10323000401521E0C34948392068884202D14FF443
:10324000002019E0BE4918312068884202D14FF4AD
:10325000002011E0BB4918312068884202D14FF4A8
:10326000002009E0B64978312068884202D14FF445
:10327000002001E04FF00070B24988398860B04901
:103280003031206888425BD9AE497839206888425D
:1032900001D1042050E0AA4918392068884201D1A0
:1032A000042049E0A74918392068884201D1042048
:1032B00042E0A34948312068884201D104203BE024
:1032C000A04960392068884201D1801534E09C49CA
:1032D0002068884201D180152EE09A4920688842F2
:1032E00001D1801528E0964960312068884201D1DB
:1032F000801521E0934948392068884202D14FF473
:10330000802019E08E4918312068884202D14FF49C
:10331000802011E08B4918312068884202D14FF497
:10332000802009E0864978312068884202D14FF434
:10333000802001E04FF0807081491C3908601EE157
:1033400080493031206888425BD97E4978392068CD
:10335000884201D1042050E0794918392068884218
:1033600001D1042049E0774918392068884201D109
:10337000042042E0724948312068884201D104208B
:103380003BE0704960392068884201D1801534E003
:103390006B492068884201D180152EE06949206878
:1033A000884201D1801528E0654960312068884253
:1033B00001D1801521E0634948392068884202D153
:1033C0004FF4802019E05E4918312068884202D10C
:1033D0004FF4802011E05B4918312068884202D107
:1033E0004FF4802009E0564978312068884202D1A4
:1033F0004FF4802001E04FF080705149203908607F
:10340000BDE050493039206888425BD94D49783950
:103410002068884201D1042050E0494918392068C9
:10342000884201D1042049E0464918392068884281
:1034300001D1042042E0424948312068884201D14C
:1034400004203BE03F4960392068884201D1801563
:1034500034E03B492068884201D180152EE039498B
:103460002068884201D1801528E035496031206804
:10347000884201D1801521E03249483920688842CC
:1034800002D14FF4802019E02D491831206888427C
:1034900002D14FF4802011E02A4918312068884277
:1034A00002D14FF4802009E0254978312068884214
:1034B00002D14FF4802001E04FF08070214988391B
:1034C000C8605CE01F4978392068884201D1042037
:1034D00052E01B4918392068884201D104204BE092
:1034E000184918392068884201D1042044E0144961
:1034F00048312068884201D104203DE011496039FB
:103500002068884201D1801536E00D492068884244
:1035100001D1801530E00B492068884201D1801527
:103520002AE0074960312068884201D1801523E0F4
:10353000044948392068884206D14FF480201BE0B6
:103540002864024088600240DF492068884202D136
:103550004FF4802010E0DD492068884202D14FF40A
:10356000802009E0D84960312068884202D14FF4B8
:10357000802001E04FF08070D449A0398860D249A2
:103580001831206888425BD9D04990392068884238
:1035900001D1012050E0CC4930392068884201D166
:1035A000012049E0C94930392068884201D1012011
:1035B00042E0C54930312068884201D101203BE01A
:1035C000C24978392068884201D1402034E0BE49A0
:1035D00018392068884201D140202DE0BB491839B4
:1035E0002068884201D1402026E0B7494831206850
:1035F000884201D140201FE0B449603920688842E8
:1036000002D14FF4803017E0AF492068884202D1E0
:103610004FF4803010E0AD492068884202D14FF469
:10362000803009E0A84960312068884202D14FF417
:10363000803001E04FF48000A349343908601CE178
:10364000A2491831206888425BD9A0499039206886
:10365000884201D1012050E09B49303920688842DE
:1036600001D1012049E0994930392068884201D1CF
:10367000012042E0944930312068884201D1012084
:103680003BE0924978392068884201D1402034E0FB
:103690008D4918392068884201D140202DE08B499E
:1036A00018392068884201D1402026E086494831F7
:1036B0002068884201D140201FE084496039206899
:1036C000884202D14FF4803017E07F492068884259
:1036D00002D14FF4803010E07C492068884202D14A
:1036E0004FF4803009E0784960312068884202D187
:1036F0004FF4803001E04FF480007349383908609E
:10370000BBE072494839206888425BD96F499039DB
:103710002068884201D1012050E06B49303920688F
:10372000884201D1012049E0684930392068884247
:1037300001D1012042E0644930312068884201D142
:1037400001203BE0614978392068884201D140205E
:1037500034E05D4918392068884201D140202DE0CD
:103760005A4918392068884201D1402026E056493C
:1037700048312068884201D140201FE05349603918
:103780002068884202D14FF4803017E04E4920680B
:10379000884202D14FF4803010E04C4920688842C2
:1037A00002D14FF4803009E04749603120688842F7
:1037B00002D14FF4803001E04FF480004349A0393A
:1037C000C8605AE0414990392068884201D10120FF
:1037D00050E03D4930392068884201D1012049E05C
:1037E0003A4930392068884201D1012042E0364907
:1037F00030312068884201D101203BE033497839DB
:103800002068884201D1402034E02F4918392068CF
:10381000884201D140202DE02C4918392068884287
:1038200001D1402026E0284948312068884201D152
:1038300040201FE0254960392068884202D14FF4BA
:10384000803017E020492068884202D14FF4803050
:1038500010E01E492068884202D14FF4803009E010
:10386000194960312068884202D14FF4803001E06C
:103870004FF480001549A03988602068006840F046
:103880001600216808602068406940F080002168C7
:103890004861206C08B9A06C28B12068006840F02D
:1038A0000800216808602068006840F00100216875
:1038B000086006E000BF002084F8340000BF4FF02D
:1038C00002094846FFF728B840640240A060024061
:1038D00070B50446A56D00F065FB064694F835000A
:1038E000022808D08020606500BF002084F83400E2
:1038F00000BF012070BD2068006820F0160021681C
:1039000008602068406920F0800021684861206CD0
:1039100008B9A06C28B12068006820F00800216870
:1039200008602068006820F00100216808600FE04E
:1039300000F038FB801B05280AD92020606500BFF5
:10394000002084F8340000BF032084F83500D1E75C
:103950002068006800F001000028E9D194F85C10AC
:103960003F208840A86000BF002084F8340000BFDA
:10397000012084F835000020BCE7014691F83500AD
:10398000022803D08020486501207047052081F877
:1039900035000868006820F001000A681060002007
:1039A000F3E70000F8B50446002000908C4800685A
:1039B0004FF41651B0FBF1F7A56D2E6894F85C102A
:1039C00008208840304098B12068006800F004006A
:1039D00070B12068006820F004002168086094F845
:1039E0005C1008208840A860606D40F001006065B0
:1039F00094F85C1001208840304068B1206840692C
:103A000000F0800040B194F85C1001208840A8606C
:103A1000606D40F00200606594F85C1004208840FE
:103A2000304068B12068006800F0020040B194F8AE
:103A30005C1004208840A860606D40F00400606560
:103A400094F85C1010208840304078B320680068FB
:103A500000F0080050B394F85C1010208840A86073
:103A60002068006800F4802080B12068006800F4BD
:103A7000002028B9206CC8B12046216C884715E089
:103A8000A06C98B12046A16C88470FE020680068C0
:103A900000F4807028B92068006820F008002168D0
:103AA0000860206C10B12046216C884794F85C10A7
:103AB000202088403040002865D02068006800F051
:103AC000100000285FD094F85C1020208840A86087
:103AD00094F83500052828D12068006820F01600E9
:103AE000216808602068406920F0800021684861F2
:103AF000206C08B9A06C28B12068006820F008008C
:103B00002168086094F85C103F208840A86000BFDE
:103B1000002084F8340000BF012084F83500206DB7
:103B200010B12046216D8847F8BD2068006800F478
:103B3000802080B12068006800F4002028B9606C03
:103B400010B12046616C88471DE0E06BD8B120467B
:103B5000E16B884717E02068006800F4807068B95E
:103B60002068006820F010002168086000BF002075
:103B700084F8340000BF012084F83500E06B10B1F8
:103B80002046E16B8847606D38B3606D00F001003E
:103B9000F0B1052084F835002068006820F00100AD
:103BA0002168086000BF0098401C0090B84200D90E
:103BB00005E02068006800F001000028F3D100BF94
:103BC00000BF002084F8340000BF012084F83500D5
:103BD000E06C10B12046E16C884700BFA4E700000C
:103BE000000000202DE9F0410446002500F0DAF93C
:103BF000074614B90120BDE8F081606A00B100BF3A
:103C000000BF002084F8340000BF022084F8350093
:103C10002068006820F00100216808600AE000F0D8
:103C2000C1F9C01B052805D920206065032084F850
:103C30003500E0E72068006800F001000028EED1C0
:103C40002068056821480540D4E901010843E1687E
:103C500008432169084361690843A1690843E16990
:103C60000843216A08430543606A042803D1D4E964
:103C70000B0108430543206805602068456925F06D
:103C80000705606A0543606A04280DD1A06A0543F0
:103C9000E06A48B12046FEF773FA28B1402060651B
:103CA000012084F83500A6E7206845612046FEF72C
:103CB0004DFA064694F85C103F208840B060002022
:103CC0006065012084F83500002094E73F8010F003
:103CD0002DE9F04704460D4616461F464FF00008F2
:103CE000D4F8589000BF94F83400012802D1022083
:103CF000BDE8F087012084F8340000BF94F8350057
:103D0000012825D1022084F83500002060653B465B
:103D1000324629462046FEF798FA94F85C103F2078
:103D20008840C9F808002068006840F01600216843
:103D30000860206C28B12068006840F00800216805
:103D400008602068006840F001002168086006E013
:103D500000BF002084F8340000BF4FF00208404646
:103D6000C6E70000F8B502460B46002500240020F7
:103D70000021DEE0012606FA01F51E6806EA0504C8
:103D8000AC4275D11E7906F00306012E04D01E79CF
:103D900006F00306022E13D190684F000326BE40A2
:103DA000B0434F00DE68BE4030439060506801264B
:103DB0008E40B0431E79C6F300168E4030435060EB
:103DC0001E7906F00306032E09D0D0684F000326A3
:103DD000BE40B0434F009E68BE403043D0601E7965
:103DE00006F00306022E13D1CF0802F1200656F882
:103DF00027004E07F70E0F26BE40B0434F07FF0EB9
:103E00001E69BE403043CF0802F1200646F8270065
:103E100010684F000326BE40B0431E7906F003062B
:103E20004F00BE40304310605E6806F08056B6F129
:103E3000805F7DD100BF00260096404E366846F474
:103E400080463E4F3E603E46366806F48046009609
:103E500000BF00BF3A4E8F0856F827008E07370F75
:103E60000F26BE40B043374EB24202D1002624E0B6
:103E70005EE0354EB24201D101261EE0334EB24221
:103E800001D1022619E0324EB24201D1032614E0DC
:103E9000304EB24201D104260FE02F4EB24201D182
:103EA00005260AE02D4EB24201D1062605E02C4E31
:103EB000B24201D1072600E008268F073F0FBE401F
:103EC00030431F4E8F0846F82700264E3068A04327
:103ED0005E6806F48036B6F5803F00D12043214E5F
:103EE0003060361D3068A0435E6806F40036B6F5D3
:103EF000003F00D120431B4E361D3060361D306818
:103F0000A0435E6806F48016B6F5801F00D12043FA
:103F1000144E08363060361D3068A0435E6806F4E3
:103F20000016B6F5001F00D120430E4E0C3630604F
:103F3000491C1029FFF41EAFF8BD000044380240B0
:103F4000083801400000024000040240000802401E
:103F5000000C024000100240001402400018024011
:103F6000001C0240003C0140024613690B400BB1AB
:103F7000012000E00020704710B5426921EA0203E9
:103F800002EA010443EA0443836110BD0AB181617E
:103F900001E00B048361704701480068000C704722
:103FA000002004E00148006870470000380000204D
:103FB00003480068034909780844014908607047CC
:103FC000380000204000002010B50A48006840F486
:103FD0000070084908600846006840F48060086086
:103FE000032000F07FF80F2000F006F800F02AF818
:103FF000002010BD003C024070B504460E48007819
:104000004FF47A71B1FBF0F00C490968B1FBF0F59F
:10401000284600F01DFC08B1012070BD102C07D20D
:1040200000222146501E00F01EF80548046001E001
:104030000120F2E70020F0E740000020000000200F
:104040003C000020704701460846002809DB00F0CC
:104050001F0301229A4043099B0003F1E023C3F8A8
:10406000002100BF70472DE9F05F80460D461646DF
:10407000002701F069FA074639462A46334601F01F
:104080000700C0F1070ABAF1040F02D94FF0040A81
:1040900001E0C0F1070AD14600F1040ABAF1070FA6
:1040A00002D24FF0000A01E0A0F1030AD4464FF01B
:1040B000010A0AFA09FAAAF1010A0AEA020A0AFA44
:1040C0000CFA4FF0010B0BFA0CFBABF1010B0BEAF6
:1040D000030B4AEA0B042146404601F03DFABDE8D5
:1040E000F09F000000BF00F00702064B19684FF672
:1040F000FF031940044B0B4343EA0221014B1960B3
:1041000000BF70470CED00E00000FA0570B50446F2
:104110000D460CB9012070BD5848006800F007003A
:10412000A84209D255490D700846006800F0070002
:10413000A84201D00120EEE7207800F0020002281A
:104140001DD1207800F00400042805D14C480068F7
:1041500040F4E0504A490860207800F00800082840
:1041600005D14748006840F460404549086044482C
:10417000006820F0F000A1680843414908602078F9
:1041800000F00100A8B36068012807D13C48083856
:104190000068C0F34040B8B90120BCE7606802285D
:1041A00002D06068032807D1354808380068C0F39A
:1041B000406048B90120AEE7314808380068C0F3D4
:1041C000400008B90120A6E72D48006820F0030050
:1041D000616808432A490860FFF7E4FE064609E0E3
:1041E000FFF7E0FE801B41F28831884202D90320AC
:1041F00091E707E02248006800F00C006168B0EB2E
:10420000810FEDD11D48006800F00700A84209D9D0
:104210001A490D700846006800F00700A84201D056
:10422000012078E7207800F00400042807D1144822
:10423000006820F4E050E1680843114908602078E4
:1042400000F00800082808D10D48006820F46040FC
:10425000216940EAC1000A49086000F03FF80849B6
:104260000968C1F30311074A515CC8400649086058
:1042700006480068FFF7C0FE00204CE7003C024003
:1042800008380240E6C80008000000203C0000207A
:1042900001480068704700000000002000B5FFF7EB
:1042A000F7FF04490968C1F38221034A515CC84001
:1042B00000BD000008380240F6C8000800B5FFF74E
:1042C000E7FF04490968C1F34231034A515CC84021
:1042D00000BD000008380240F6C800082DE9F0478C
:1042E000002400250026A1462548006800F00C00A7
:1042F00020B1042805D008283AD105E0DFF88490E1
:1043000039E0DFF8849036E01D48001F006800F0B7
:104310003F041B48001F006800F4800078B11A4871
:104320001749091F0968C1F38811A0FB01700146F4
:10433000224600233846FCF754F805460EE01148A3
:104340000F49091F0968C1F38811A0FB01700146DC
:10435000224600233846FCF744F805460848001F6B
:104360000068C0F30140401C4600B5FBF6F902E0CE
:10437000DFF8109000BF00BF4846BDE8F08700009E
:10438000083802400024F40000127A00F8B5044610
:104390000CB90120F8BD207800F00100002874D08D
:1043A000F948006800F00C0004280DD0F6480068B9
:1043B00000F00C00082813D1F348001F006800F437
:1043C0008000B0F5800F0BD1EF4808380068C0F3CB
:1043D0004040002859D06068002856D10120D9E714
:1043E00000BF6068B0F5803F08D1E7480838006832
:1043F00040F48030E449083908601EE06068B0F598
:10440000A02F0DD1E0480838006840F48020DE4934
:10441000083908600846006840F4803008600CE005
:10442000D9480838006820F48030D7490839086036
:104430000846006820F48020086000BF606890B1E2
:10444000FFF7B0FD054606E0FFF7ACFD401B642812
:1044500001D903209EE7CC4808380068C0F34040EB
:104460000028F1D011E0FFF79DFD054606E0FFF7BB
:1044700099FD401B642801D903208BE7C248083806
:104480000068C0F340400028F1D1207800F002001D
:1044900002285FD1BC48006800F00C0058B1BA484F
:1044A000006800F00C0008281CD1B748001F006805
:1044B00000F48000B0B9B44808380068C0F3400088
:1044C00020B1E068012801D0012063E7AE48083838
:1044D000006820F0F800216940EAC100AA490839C3
:1044E000086037E0E06800B30120A8490860FFF7E2
:1044F00059FD054606E0FFF755FD401B022801D98E
:10450000032047E7A04808380068C0F340000028AF
:10451000F1D09D480838006820F0F800216940EA91
:10452000C10099490839086014E0002097490860E3
:10453000FFF738FD054606E0FFF734FD401B022873
:1045400001D9032026E7904808380068C0F34000EE
:104550000028F1D1207800F0080008282CD16069EB
:10456000A8B101208A490860FFF71CFD054606E056
:10457000FFF718FD401B022801D903200AE78248F3
:104580006C300068C0F340000028F1D014E0002037
:104590007F490860FFF706FD054606E0FFF702FDCC
:1045A000401B022801D90320F4E677486C300068EC
:1045B000C0F340000028F1D1207800F00400042866
:1045C00070D1002770483830006800F0805090B9F2
:1045D00000BF002000906C483830006840F08050E8
:1045E0006949383108600846006800F08050009042
:1045F00000BF00BF01276748006800F48070B0B9B1
:104600006448006840F4807062490860FFF7CAFCA3
:10461000054606E0FFF7C6FC401B022801D903202F
:10462000B8E65C48006800F480700028F2D000BF53
:10463000A068012808D154486830006840F00100A3
:104640005149683108601DE0A06805280DD14E4829
:104650006830006840F004004B4968310860084643
:10466000006840F0010008600CE0474868300068CE
:1046700020F001004449683108600846006820F0D5
:104680000400086000BFA068A8B1FFF78BFC0546D6
:1046900009E0FFF787FC401B41F28831884202D9CC
:1046A000032077E626E0384868300068C0F3400011
:1046B0000028EED013E0FFF775FC054608E0FFF791
:1046C00071FC401B41F28831884201D9032061E628
:1046D0002D4868300068C0F340000028EFD1012F5A
:1046E00007D129483830006820F0805026493831F9
:1046F000086000BFA069002845D02348006800F08A
:104700000C0008285DD0A069022845D100201F496F
:104710000866FFF747FC054606E0FFF743FC401B31
:10472000022801D9032035E6174808380068C0F38D
:1047300040600028F1D1D4E907010843616A40EAEA
:1047400081110122A06AC2EB500041EA00412C20F5
:10475000005D41EA00600C49091F086001200B4917
:104760000866FFF71FFC054606E0FFF71BFC401B31
:10477000022801D903200DE6034808380068C0F379
:1047800040600028F1D049E008380240000047426C
:10479000800E474200700040002021490866FFF764
:1047A00001FC054606E0FFF7FDFB401B022801D98E
:1047B0000320EFE51B480068C0F340600028F2D1F9
:1047C0002CE0A069012800D1E4E51648001D066828
:1047D000A069012820D006F48001E06981421BD144
:1047E00006F03F01206A814216D147F6C070304082
:1047F000616AB0EB811F0FD106F440310122A06A3B
:10480000C2EB5000B1EB004F06D106F070612C20D6
:10481000005DB1EB006F01D00120BBE50020B9E5E0
:104820000000474200380240042808D14FF0E02140
:10483000096941F004014FF0E022116107E04FF0F7
:10484000E021096921F004014FF0E0221161704775
:1048500070B504462546681EB0F1807F01D3012063
:104860000FE0681E4FF0E02148610F214FF0FF304C
:1048700000F072FE00204FF0E021886107200861FF
:10488000002070BD10B504460CB9012010BD94F88D
:104890003D0028B9002084F83C00204600F026F8AE
:1048A000022084F83D00211D206800F0FBFA012061
:1048B00084F8460000BF84F83E0001213F200155E6
:1048C000402001554120015500BF00BF012084F860
:1048D000420043200155442001554520015500BFA9
:1048E000012084F83D000020D0E7000038B50446E0
:1048F00013492068884221D100BF00BF00200090EA
:104900001048006840F010000E4908600846006832
:1049100000F01000009000BF00BF00BF0022114651
:104920003620FFF7A0FB3620FFF78DFB0648006816
:10493000C06840F0010004490968C86038BD000043
:1049400000100040403802405C97002010B504463B
:104950000CB9012010BDA06900B100E000BF94F8BF
:104960003D0028B9002084F83C00204600F028F8DB
:10497000242084F83D002068C06820F4005021689D
:10498000C860204600F0FAFA2068006920F49040E0
:10499000216808612068406920F02A002168486188
:1049A0002068C06840F400502168C860002020647E
:1049B000202084F83D0084F83E000020CAE7000073
:1049C00010B586B00446A0492068884267D100BF70
:1049D00000BF002000909D48006840F001009B4906
:1049E00008600846006800F00100009000BF00BFAA
:1049F00000BF00BF00BF002000900846006840F0E4
:104A0000010008600846006800F00100009000BF47
:104A100000BF00BF00BF00BF002000908B481030D7
:104A2000006840F400308949103108600846006889
:104A300000F40030009000BF00BF00BF04200190D0
:104A4000022002900020039002200490072005908D
:104A500001A97F48FFF786F9082001900220029003
:104A600000200390022004900720059001A97848B7
:104A7000FFF778F9002211462620FFF7F4FA2620E6
:104A8000FFF7E1FA2068C06840F020002168C860A4
:104A90002068C06840F010002168C860D2E06D490D
:104AA0002068884268D100BF00BF0020009067489E
:104AB000006840F00100654908600846006800F0A1
:104AC0000100009000BF00BF00BF00BF00BF00207A
:104AD00000900846006840F0010008600846006841
:104AE00000F00100009000BF00BF00BF00BF00BF8A
:104AF0000020009055481430006840F010005349E1
:104B0000143108600846006800F01000009000BFF3
:104B100000BF00BF481501900220029000200390C2
:104B2000022004900720059001A94948FFF71AF9CF
:104B30004FF4806001900220029000200390022038
:104B400004900720059001A94148FFF70BF90022C6
:104B500011462520FFF787FA2520FFF774FA206811
:104B6000C06840F020002168C8602068C06840F03C
:104B700010002168C86065E037492068884261D12B
:104B800000BF00BF002000903048006840F00200E5
:104B90002E4908600846006800F00200009000BF3F
:104BA00000BF00BF00BF00BF0020009008460068A3
:104BB00040F0020008600846006800F00200009023
:104BC00000BF00BF00BF00BF00BF002000901F4813
:104BD0001030006840F480201C49103108600846FD
:104BE000006800F48020009000BF00BF00BF0815DF
:104BF00001900220029000200390022004900720E0
:104C0000059001A91548FFF7ADF84FF40060019039
:104C100002200290002003900220049007200590BB
:104C200001A90E48FFF79EF8002211462720FFF742
:104C30001AFA2720FFF707FA2068C06840F0200022
:104C40002168C86006B010BD004400403038024002
:104C500000000240001001400048004000040240F3
:104C60002DE9F84F04460E46174699464FF0000AC4
:104C700094F83E0020285FD106B117B90120BDE8A5
:104C8000F88F00BF94F83C00012801D10220F6E71C
:104C9000012084F83C0000BF00202064222084F81A
:104CA0003E0000202063FFF77DF98246A785E78557
:104CB000A068B0F5805F04D1206910B90025B04626
:104CC00002E035464FF0000800BF002084F83C00A9
:104CD00000BF29E05346002220212046CDF8009055
:104CE00000F062FA08B10320C9E745B920684068BE
:104CF000C0F30800A8F8000008F1020811E0A0685D
:104D0000B0F5805F03D0A06828B9206918B9206881
:104D10004068287004E02068406800F07F00287038
:104D20006D1CE08D401EE085E08D0028D2D1202052
:104D300084F83E000020A2E70220A0E72DE9F84F0A
:104D400004460E46174699464FF0000A94F83D0077
:104D500020285AD106B117B90120BDE8F88F00BF4D
:104D600094F83C00012801D10220F6E7012084F8E4
:104D70003C0000BF00202064212084F83D00FFF7A4
:104D800011F98246A784E784A068B0F5805F04D15A
:104D9000206910B90025B04602E035464FF0000802
:104DA00000BF002084F83C0000BF1BE053460022F7
:104DB00080212046CDF8009000F0F6F908B10320DC
:104DC000CBE745B9B8F80000C0F308002168486097
:104DD00008F1020803E02878216848606D1CE08C27
:104DE000401EE084E08C0028E0D1534600224021A0
:104DF0002046CDF8009000F0D7F908B10320ACE7C9
:104E0000202084F83D000020A7E70220A5E700BF8E
:104E1000FEE700BFFEE7704710B5FFF7C9F807F0DF
:104E2000D3F9012801D006F08DFD10BD03480068BC
:104E300040F47000014908607047000088ED00E010
:104E400016480068006900F0010028B36FF0010007
:104E50001249096808611248B0F8800020F4004047
:104E600000F500400E49A1F8800000BF0B48006823
:104E7000006A41F21111084068B908480068006AE8
:104E80008910084038B905480068006820F0010022
:104E900002490968086000BF704700005C97002065
:104EA000E897002010B50268294B98420ED0B0F167
:104EB000804F0BD0274B984208D0274B984205D003
:104EC000264B984202D0264B984203D122F0700222
:104ED0004B681A431E4B984220D0B0F1804F1DD032
:104EE0001C4B98421AD01C4B984217D01B4B98422F
:104EF00014D01B4B984211D01A4B98420ED01A4B2B
:104F000098420BD0194B984208D0194B984205D0C3
:104F1000184B984202D0184B984203D122F44072A9
:104F2000CB681A4322F080034C6943EA0402026012
:104F30008B68C3620B688362054B984202D0084BB2
:104F4000984201D10B6903630123436110BD000046
:104F5000000001400004004000080040000C004038
:104F6000000401400040014000440140004801406D
:104F700000180040001C0040002000402DE9F84FC0
:104F800004462068006920F44050E1680843216825
:104F900008612169A068084361690843E169084321
:104FA00000902068C06849F20C618843009908436A
:104FB0002168C8602068406920F44070A1690843F6
:104FC0002168486176492068884203D07549206885
:104FD000884203D1FFF772F9814602E0FFF75EF9DC
:104FE0008146E069B0F5004F6CD102206168A0FBFA
:104FF000015003461920A9FB007001462A46384695
:10500000FBF7EFF96421B0FBF1F04FEA001A022040
:105010006168A0FB01510B461920A9FB00712A46CB
:105020003846FBF7DEF9834602206168A0FB015099
:1050300003461920A9FB00712A463846FBF7D1F92F
:105040006421B0FBF1F000EBC00101EB0010ABEB11
:105050008000322101EBC0006421B0FBF1F000F0D0
:10506000F8000AEB400A02206168A0FB01500346E9
:105070001920A9FB007001462A463846FBF7B1F912
:10508000834602206168A0FB015003461920A9FB5A
:1050900000712A463846FBF7A4F96421B0FBF1F011
:1050A00000EBC00101EB0010ABEB8000322101EB03
:1050B000C0006421B0FBF1F000F00700504421680B
:1050C00088606AE004206168A0FB01500346192053
:1050D000A9FB007001462A463846FBF782F9824652
:1050E00004206168A0FB015003461920A9FB007051
:1050F00001462A463846FBF774F96421B0FBF1F00B
:1051000000EBC00101EB0010AAEB8000322101EBA3
:1051100000106421B0FBF1F000F0F00A0420616897
:10512000A0FB017003461920A9FB00513A4628460E
:10513000FBF757F96421B0FBF1F00AEB001A0420E9
:105140006168A0FB01510B461920A9FB00712A469A
:105150003846FBF746F9834604206168A0FB0150FE
:1051600003461920A9FB007001462A463846FBF782
:1051700038F96421B0FBF1F000EBC00101EB001045
:10518000ABEB8000322101EB00106421B0FBF1F0A9
:1051900000F00F00504421688860BDE8F88F0000DF
:1051A00000100140001401402DE9F04104460D4675
:1051B00017469846069E21E0701CF8B12EB1FEF706
:1051C000F1FEA0EB0800B04218D92068C06820F4B6
:1051D000D0702168C8602068406920F00100216813
:1051E0004861202084F83D0084F83E0000BF002084
:1051F00084F83C0000BF0320BDE8F081206800680F
:105200002840A84201D1012000E00020B842D3D0BC
:105210000020F1E708B53F4909680968C1F3C001FA
:10522000D1B100BF002100913A4909680968009195
:10523000384909684968009100BF00BF35490968CD
:1052400009683449096849683349B1F800186FF3AF
:105250000E01314AA2F800182E4909680968C1F305
:105260004011C1B32B4909684968C8B22A49B1F84D
:105270000018C1F30E0140F2FF72914212DA264982
:10528000B1F80018C1F30E01234A50541146B1F889
:105290000018491CB2F8002861F30E021E49A1F85B
:1052A000002818E01C49B1F800186FF30E011A4AE3
:1052B000A2F800181146B1F80018C1F30E015054BD
:1052C0001146B1F80018491CB2F8002861F30E022B
:1052D0001149A1F800280F4909680968C1F30011B4
:1052E000B1B10D49B1F8001821F4004101F50041B8
:1052F000094AA2F8001800BF002100910549096879
:1053000009680091034909684968009100BF00BF1E
:1053100008BD0000D48E0020188F00201CB53E4828
:1053200000680068C0F3C00090B100BF002000908A
:10533000394800680068009037480068406800906D
:1053400000BF00BF34480068006833480068406808
:10535000314800680068C0F3401010B34FF0FF33CD
:10536000012201A92C48FFF77BFC2C48B0F88000F3
:10537000C0F30E007F2815DA9DF804002749B1F824
:105380008010C1F30E01254A50541046B0F8800039
:10539000401C1146B1F8801060F30E011046A0F8D1
:1053A00080101BE01D48B0F880006FF30E001B4911
:1053B000A1F880009DF80400B1F88010C1F30E013F
:1053C000164A50541046B0F88000401C1146B1F8FF
:1053D000801060F30E011046A0F880100E4800689F
:1053E0000068C0F30010B0B10C48B0F8800020F4A1
:1053F000004000F500400949A1F8800000BF0020EE
:105400000090054800680068009003480068406804
:10541000009000BF00BF1CBD708D0020B48D002027
:105420001CB5394800680068C0F3C00090B100BFE7
:1054300000200090344800680068009032480068FE
:105440004068009000BF00BF2F48006800682E48E9
:10545000006840682C4800680068C0F340100028CD
:1054600051D04FF0FF33012201A92748FFF7F8FB85
:105470002648B0F88000C0F30E007F2827DA00200D
:105480002349096848622148B0F88000C0F30E0043
:1054900038B91F480068006840F001001C490968DD
:1054A00008609DF804001949B1F88010C1F30E019D
:1054B000164A50541046B0F88000401C1146B1F80E
:1054C000801060F30E011046A0F880101BE00F481A
:1054D000B0F880006FF30E000C49A1F880009DF831
:1054E0000400B1F88010C1F30E01084A5054104670
:1054F000B0F88000401C1146B1F8801060F30E0136
:105500001046A0F880101CBDA4970020E89700204A
:105510005C97002000BFFEE703B4019841000098AB
:1055200050EAC12018BF04204A0D18BF40F0010006
:1055300040F2FF72B2EB515F08BF40F00200012859
:1055400008BF052002B0704702480068C0F302207F
:10555000704700000CED00E010B5002804DB0A07DE
:10556000130E054A135406E00A07140E034A00F00E
:105570000F031B1FD45410BD00E400E018ED00E041
:1055800030380A2801D2012070470020704700BF40
:10559000704770B5FF240025012143F2230001F07C
:1055A0008EFD082143F2220001F089FD09E001206F
:1055B00003F062FE43F2230000F0A6FA0446681CE2
:1055C00085B21CB141F288308542F0DB0CB1052078
:1055D00070BDFF240025012143F2230001F06FFD7F
:1055E000042143F2220001F06AFD09E0012003F0EA
:1055F00043FE43F2230000F087FA0446681C85B29C
:105600001CB141F288308542F0DB0CB10520DFE7A8
:105610000020DDE72DE9F0410026002720214FF48E
:10562000405001F04CFD4FF40045002407E02848AD
:10563000015D284601F043FD681C85B2641C40F6FC
:10564000ED708442F3D3002143F2220001F037FDD4
:10565000002143F2230001F032FD002143F2240037
:1056600001F02DFD002143F2250001F028FD00216D
:1056700043F2260001F023FD002143F2270001F050
:105680001EFD002143F2280001F019FD7F2143F2A5
:10569000290001F014FD00214FF4405001F00FFDEE
:1056A00009E0012003F0E8FD43F2290000F02CFAA4
:1056B0000646781C87B2702E03D041F288308742AC
:1056C000EFDB702E02D00520BDE8F0810020FBE763
:1056D0009ACD000810B508480849086000204860C5
:1056E0002021064881600021C16001614161816122
:1056F0000162FCF725FE10BD00000550CC8C002097
:105700002DE9F04104460D4616461F461248806BAF
:1057100005611148806B86610F49886BFEF762FA5C
:1057200000200D4981F8400008460068C06840F03C
:1057300001000968C8603B46224602210648FDF781
:1057400015F800BF044890F840000028FAD002483D
:10575000FDF782F8BDE8F081CC8C002010B500BFC9
:1057600000224FF400410E48FEF710FC00BF142049
:1057700003F082FD00BF00224FF400710848FEF7DD
:1057800005FC00BF052003F077FD00BF0122D10317
:105790000348FEF7FBFB00BF142003F06DFD10BDB6
:1057A0000018024010B543F20A0000F0ADF90402FF
:1057B00043F20B0000F0A8F90443204610BD00009E
:1057C0002DE9F04781460F469046062F3FD2DFE88D
:1057D00007F0030C16202A340024002524480089F1
:1057E0002349498900FB01F634E04FF48064002529
:1057F0001F4800891E49498900FB01F62AE0002460
:105800004FF400551A480089194949894843460808
:1058100020E04FF48064E500154800891449498967
:105820004843460816E000244FF48045104800899C
:105830000F494989484386080CE04FF480642501EC
:105840000B4800890A4949894843860802E002203A
:10585000BDE8F08700BFB8F1000F00D0C047334665
:105860002A4621464846FFF74BFF0020F0E700009C
:10587000C08C00202DE9FF5F642003F0FDFC4FF495
:10588000605000F041F9044643F6010000F03CF995
:10589000054643F6020000F037F9064643F60300DA
:1058A00000F032F9074643F6040000F02DF9804677
:1058B00043F6050000F028F9814643F6060000F0A3
:1058C00023F9824643F6070000F01EF9834604F0F0
:1058D0000F0045EA0020039006F0070047EA002089
:1058E000029008F00F0049EA002001900AF007003A
:1058F0004BEA0020009003990198401A044908805F
:1059000002990098401A02494880BDE8FF9F0000B4
:10591000C08C00202DE9F047642003F0ADFC43F675
:10592000080000F0F1F8044643F6090000F0ECF836
:10593000054643F60A0000F0E7F8064643F60B007A
:1059400000F0E2F8074604F00F0045EA002806F0F0
:10595000070047EA00290348A0F80880A0F80A9049
:10596000BDE8F087C08C00202DE9F047642003F0EB
:1059700083FC43F6100000F0C7F8044643F611001C
:1059800000F0C2F8054643F6120000F0BDF80646E6
:1059900043F6130000F0B8F8074604F00F0045EA9C
:1059A000002806F0070047EA0029FFF763FF0748D1
:1059B0000088A0EB48000549888008464088A0EB95
:1059C000490081B20148C180BDE8F087C08C002049
:1059D00000B587B0142102A8FBF730F800BF00BF64
:1059E000002001902348006840F0400021490860F1
:1059F0000846006800F04000019000BF00BF00BFF3
:105A000000BF00BF002001900846006840F0400041
:105A100008600846006800F04000019000BF00BF29
:105A200000BF4FF400400290012003900490022038
:105A3000059002A91048FEF795F94FF40070029006
:105A40000120039004900220059002A90A48FEF765
:105A500089F900BF0122D1030748FEF797FA00BF7A
:105A600000BF012251020448FEF790FA00BF07B0C0
:105A700000BD0000303802400018024010B500BFE1
:105A800000224FF400410948FEF780FA00BF1420BD
:105A900003F0F2FB00BF0122D1030448FEF776FABF
:105AA00000BF142003F0E8FB10BD00000018024006
:105AB00010B5FFF78DFFFFF751FEFFF7DFFF00F096
:105AC00075F801F0E6FAFFF76DFE044645F2406016
:105AD000844201D0012010BD00F004F8FFF7FAFD68
